{
  "contractName": "AdContract",
  "abi": [
    {
      "inputs": [],
      "stateMutability": "nonpayable",
      "type": "constructor"
    },
    {
      "anonymous": false,
      "inputs": [
        {
          "indexed": true,
          "internalType": "uint256",
          "name": "adId",
          "type": "uint256"
        },
        {
          "indexed": true,
          "internalType": "address",
          "name": "advertiser",
          "type": "address"
        },
        {
          "indexed": false,
          "internalType": "uint256",
          "name": "reward",
          "type": "uint256"
        }
      ],
      "name": "AdCreated",
      "type": "event"
    },
    {
      "anonymous": false,
      "inputs": [
        {
          "indexed": true,
          "internalType": "address",
          "name": "user",
          "type": "address"
        },
        {
          "indexed": false,
          "internalType": "uint256",
          "name": "amount",
          "type": "uint256"
        }
      ],
      "name": "DepositSuccess",
      "type": "event"
    },
    {
      "inputs": [
        {
          "internalType": "uint256",
          "name": "",
          "type": "uint256"
        }
      ],
      "name": "ads",
      "outputs": [
        {
          "internalType": "address",
          "name": "advertiser",
          "type": "address"
        },
        {
          "internalType": "uint256",
          "name": "reward",
          "type": "uint256"
        },
        {
          "internalType": "uint256",
          "name": "maxInfluencer",
          "type": "uint256"
        },
        {
          "internalType": "uint256",
          "name": "deadline",
          "type": "uint256"
        },
        {
          "internalType": "bytes32",
          "name": "metadataHash",
          "type": "bytes32"
        },
        {
          "internalType": "uint256",
          "name": "acceptedCount",
          "type": "uint256"
        },
        {
          "internalType": "bool",
          "name": "isClosed",
          "type": "bool"
        }
      ],
      "stateMutability": "view",
      "type": "function",
      "constant": true
    },
    {
      "inputs": [],
      "name": "nextAdId",
      "outputs": [
        {
          "internalType": "uint256",
          "name": "",
          "type": "uint256"
        }
      ],
      "stateMutability": "view",
      "type": "function",
      "constant": true
    },
    {
      "inputs": [],
      "name": "deposit",
      "outputs": [],
      "stateMutability": "payable",
      "type": "function",
      "payable": true
    },
    {
      "inputs": [
        {
          "internalType": "uint256",
          "name": "reward",
          "type": "uint256"
        },
        {
          "internalType": "uint256",
          "name": "maxInfluencer",
          "type": "uint256"
        },
        {
          "internalType": "uint256",
          "name": "deadline",
          "type": "uint256"
        },
        {
          "internalType": "bytes32",
          "name": "metadataHash",
          "type": "bytes32"
        }
      ],
      "name": "addContract",
      "outputs": [],
      "stateMutability": "payable",
      "type": "function",
      "payable": true
    },
    {
      "inputs": [
        {
          "internalType": "uint256",
          "name": "adId",
          "type": "uint256"
        }
      ],
      "name": "getAd",
      "outputs": [
        {
          "components": [
            {
              "internalType": "address",
              "name": "advertiser",
              "type": "address"
            },
            {
              "internalType": "uint256",
              "name": "reward",
              "type": "uint256"
            },
            {
              "internalType": "uint256",
              "name": "maxInfluencer",
              "type": "uint256"
            },
            {
              "internalType": "uint256",
              "name": "deadline",
              "type": "uint256"
            },
            {
              "internalType": "bytes32",
              "name": "metadataHash",
              "type": "bytes32"
            },
            {
              "internalType": "uint256",
              "name": "acceptedCount",
              "type": "uint256"
            },
            {
              "internalType": "bool",
              "name": "isClosed",
              "type": "bool"
            }
          ],
          "internalType": "struct AdContract.Ad",
          "name": "",
          "type": "tuple"
        }
      ],
      "stateMutability": "view",
      "type": "function",
      "constant": true
    },
    {
      "inputs": [],
      "name": "getBalance",
      "outputs": [
        {
          "internalType": "uint256",
          "name": "",
          "type": "uint256"
        }
      ],
      "stateMutability": "view",
      "type": "function",
      "constant": true
    }
  ],
  "bytecode": "0x608060405234801561001057600080fd5b506000600181905550610bf2806100286000396000f3fe6080604052600436106100555760003560e01c806311a7a4c01461005a57806312065fe01461009d5780631a8bb68d146100c85780636dee86bb146100f35780637ede1c071461010f578063d0e30db01461014c575b600080fd5b34801561006657600080fd5b50610081600480360381019061007c919061063f565b610156565b60405161009497969594939291906106f0565b60405180910390f35b3480156100a957600080fd5b506100b26101c5565b6040516100bf919061075f565b60405180910390f35b3480156100d457600080fd5b506100dd6101cd565b6040516100ea919061075f565b60405180910390f35b61010d600480360381019061010891906107a6565b6101d3565b005b34801561011b57600080fd5b506101366004803603810190610131919061063f565b61044a565b60405161014391906108d7565b60405180910390f35b610154610519565b005b60006020528060005260406000206000915090508060000160009054906101000a900473ffffffffffffffffffffffffffffffffffffffff16908060010154908060020154908060030154908060040154908060050154908060060160009054906101000a900460ff16905087565b600047905090565b60015481565b83341015610216576040517f08c379a000000000000000000000000000000000000000000000000000000000815260040161020d9061094f565b60405180910390fd5b60008411610259576040517f08c379a0000000000000000000000000000000000000000000000000000000008152600401610250906109bb565b60405180910390fd5b6000831161029c576040517f08c379a000000000000000000000000000000000000000000000000000000000815260040161029390610a4d565b60405180910390fd5b4282116102de576040517f08c379a00000000000000000000000000000000000000000000000000000000081526004016102d590610ab9565b60405180910390fd5b6040518060e001604052803373ffffffffffffffffffffffffffffffffffffffff1681526020018581526020018481526020018381526020018281526020016000815260200160001515815250600080600154815260200190815260200160002060008201518160000160006101000a81548173ffffffffffffffffffffffffffffffffffffffff021916908373ffffffffffffffffffffffffffffffffffffffff1602179055506020820151816001015560408201518160020155606082015181600301556080820151816004015560a0820151816005015560c08201518160060160006101000a81548160ff0219169083151502179055509050503373ffffffffffffffffffffffffffffffffffffffff166001547fc7ee275ef2ba193e42bf9f80a17bc8bbf309d0453255f7c34f1eab54a06922d686604051610424919061075f565b60405180910390a36001600081548092919061043f90610b08565b919050555050505050565b6104526105ac565b6000808381526020019081526020016000206040518060e00160405290816000820160009054906101000a900473ffffffffffffffffffffffffffffffffffffffff1673ffffffffffffffffffffffffffffffffffffffff1673ffffffffffffffffffffffffffffffffffffffff16815260200160018201548152602001600282015481526020016003820154815260200160048201548152602001600582015481526020016006820160009054906101000a900460ff1615151515815250509050919050565b6000341161055c576040517f08c379a000000000000000000000000000000000000000000000000000000000815260040161055390610b9c565b60405180910390fd5b3373ffffffffffffffffffffffffffffffffffffffff167f60bbf3f279de4eb569cec9565dbd645a7d269bef7d4b20083d8da32ddd6e9460346040516105a2919061075f565b60405180910390a2565b6040518060e00160405280600073ffffffffffffffffffffffffffffffffffffffff16815260200160008152602001600081526020016000815260200160008019168152602001600081526020016000151581525090565b600080fd5b6000819050919050565b61061c81610609565b811461062757600080fd5b50565b60008135905061063981610613565b92915050565b60006020828403121561065557610654610604565b5b60006106638482850161062a565b91505092915050565b600073ffffffffffffffffffffffffffffffffffffffff82169050919050565b60006106978261066c565b9050919050565b6106a78161068c565b82525050565b6106b681610609565b82525050565b6000819050919050565b6106cf816106bc565b82525050565b60008115159050919050565b6106ea816106d5565b82525050565b600060e082019050610705600083018a61069e565b61071260208301896106ad565b61071f60408301886106ad565b61072c60608301876106ad565b61073960808301866106c6565b61074660a08301856106ad565b61075360c08301846106e1565b98975050505050505050565b600060208201905061077460008301846106ad565b92915050565b610783816106bc565b811461078e57600080fd5b50565b6000813590506107a08161077a565b92915050565b600080600080608085870312156107c0576107bf610604565b5b60006107ce8782880161062a565b94505060206107df8782880161062a565b93505060406107f08782880161062a565b925050606061080187828801610791565b91505092959194509250565b6108168161068c565b82525050565b61082581610609565b82525050565b610834816106bc565b82525050565b610843816106d5565b82525050565b60e08201600082015161085f600085018261080d565b506020820151610872602085018261081c565b506040820151610885604085018261081c565b506060820151610898606085018261081c565b5060808201516108ab608085018261082b565b5060a08201516108be60a085018261081c565b5060c08201516108d160c085018261083a565b50505050565b600060e0820190506108ec6000830184610849565b92915050565b600082825260208201905092915050565b7f496e73756666696369656e74207061796d656e74000000000000000000000000600082015250565b60006109396014836108f2565b915061094482610903565b602082019050919050565b600060208201905081810360008301526109688161092c565b9050919050565b7f526577617264206d7573742062652067726561746572207468616e2030000000600082015250565b60006109a5601d836108f2565b91506109b08261096f565b602082019050919050565b600060208201905081810360008301526109d481610998565b9050919050565b7f4d617820696e666c75656e636572206d7573742062652067726561746572207460008201527f68616e2030000000000000000000000000000000000000000000000000000000602082015250565b6000610a376025836108f2565b9150610a42826109db565b604082019050919050565b60006020820190508181036000830152610a6681610a2a565b9050919050565b7f446561646c696e65206d75737420626520696e20746865206675747572650000600082015250565b6000610aa3601e836108f2565b9150610aae82610a6d565b602082019050919050565b60006020820190508181036000830152610ad281610a96565b9050919050565b7f4e487b7100000000000000000000000000000000000000000000000000000000600052601160045260246000fd5b6000610b1382610609565b91507fffffffffffffffffffffffffffffffffffffffffffffffffffffffffffffffff8203610b4557610b44610ad9565b5b600182019050919050565b7f416d6f756e74206d7573742062652067726561746572207468616e2030000000600082015250565b6000610b86601d836108f2565b9150610b9182610b50565b602082019050919050565b60006020820190508181036000830152610bb581610b79565b905091905056fea2646970667358221220d27b5e777a5f28a65c4b4824930dfc734c8e3e2290d62a104a0210bcce9be2f664736f6c63430008130033",
  "immutableReferences": {},
  "source": "// SPDX-License-Identifier: MIT\r\npragma solidity ^0.8.19;  // 0.8.21  0.8.19 \r\n\r\ncontract AdContract {\r\n    struct Ad {\r\n        address advertiser;     //   \r\n        uint256 reward;         // \r\n        uint256 maxInfluencer;  //   \r\n        uint256 deadline;       //    timestamp\r\n        bytes32 metadataHash;   //     \r\n        uint256 acceptedCount;  //  \r\n        bool isClosed;\r\n    }\r\n\r\n    mapping(uint256 => Ad) public ads;\r\n    uint256 public nextAdId;\r\n    \r\n    //  \r\n    event AdCreated(uint256 indexed adId, address indexed advertiser, uint256 reward);\r\n    event DepositSuccess(address indexed user, uint256 amount);\r\n\r\n    constructor() {\r\n        nextAdId = 0;\r\n    }\r\n\r\n    // () \r\n    function deposit() public payable {\r\n        require(msg.value > 0, \"Amount must be greater than 0\");\r\n        emit DepositSuccess(msg.sender, msg.value);\r\n    }\r\n\r\n    //    (addContract)\r\n    function addContract(\r\n        uint256 reward,\r\n        uint256 maxInfluencer,\r\n        uint256 deadline,\r\n        bytes32 metadataHash\r\n    ) public payable {\r\n        require(msg.value >= reward, \"Insufficient payment\");\r\n        require(reward > 0, \"Reward must be greater than 0\");\r\n        require(maxInfluencer > 0, \"Max influencer must be greater than 0\");\r\n        require(deadline > block.timestamp, \"Deadline must be in the future\");\r\n        \r\n        ads[nextAdId] = Ad({\r\n            advertiser: msg.sender,\r\n            reward: reward,\r\n            maxInfluencer: maxInfluencer,\r\n            deadline: deadline,\r\n            metadataHash: metadataHash,\r\n            acceptedCount: 0,\r\n            isClosed: false\r\n        });\r\n        \r\n        emit AdCreated(nextAdId, msg.sender, reward);\r\n        nextAdId++;\r\n    }\r\n\r\n    //   \r\n    function getAd(uint256 adId) public view returns (Ad memory) {\r\n        return ads[adId];\r\n    }\r\n\r\n    //    ()\r\n    function getBalance() public view returns (uint256) {\r\n        return address(this).balance;\r\n    }\r\n}",
  "sourcePath": "C:\\Users\\USER\\Desktop\\GreenSalary\\Truffle\\contracts\\AdContract.sol",
  "compiler": {
    "name": "solc",
    "version": "0.8.19+commit.7dd6d404.Emscripten.clang"
  },
  "schemaVersion": "3.4.16",
  "updatedAt": "2025-05-25T17:41:12.031Z",
  "networkType": "ethereum",
  "devdoc": {
    "kind": "dev",
    "methods": {},
    "version": 1
  },
  "userdoc": {
    "kind": "user",
    "methods": {},
    "version": 1
  }
}