{
  "contractName": "AdContract",
  "abi": [
    {
      "inputs": [],
      "stateMutability": "nonpayable",
      "type": "constructor"
    },
    {
      "anonymous": false,
      "inputs": [
        {
          "indexed": true,
          "internalType": "uint256",
          "name": "adId",
          "type": "uint256"
        },
        {
          "indexed": true,
          "internalType": "address",
          "name": "advertiser",
          "type": "address"
        },
        {
          "indexed": false,
          "internalType": "uint256",
          "name": "reward",
          "type": "uint256"
        }
      ],
      "name": "AdCreated",
      "type": "event"
    },
    {
      "anonymous": false,
      "inputs": [
        {
          "indexed": true,
          "internalType": "address",
          "name": "user",
          "type": "address"
        },
        {
          "indexed": false,
          "internalType": "uint256",
          "name": "amount",
          "type": "uint256"
        }
      ],
      "name": "DepositSuccess",
      "type": "event"
    },
    {
      "anonymous": false,
      "inputs": [
        {
          "indexed": true,
          "internalType": "uint256",
          "name": "adId",
          "type": "uint256"
        },
        {
          "indexed": true,
          "internalType": "address",
          "name": "influencer",
          "type": "address"
        }
      ],
      "name": "JoinedAd",
      "type": "event"
    },
    {
      "anonymous": false,
      "inputs": [
        {
          "indexed": true,
          "internalType": "uint256",
          "name": "adId",
          "type": "uint256"
        },
        {
          "indexed": true,
          "internalType": "address",
          "name": "influencer",
          "type": "address"
        },
        {
          "indexed": false,
          "internalType": "uint256",
          "name": "reward",
          "type": "uint256"
        }
      ],
      "name": "PaidInfluencer",
      "type": "event"
    },
    {
      "inputs": [
        {
          "internalType": "uint256",
          "name": "",
          "type": "uint256"
        },
        {
          "internalType": "address",
          "name": "",
          "type": "address"
        }
      ],
      "name": "adInfluencerMap",
      "outputs": [
        {
          "internalType": "address",
          "name": "influencer",
          "type": "address"
        },
        {
          "internalType": "bool",
          "name": "paid",
          "type": "bool"
        },
        {
          "internalType": "uint256",
          "name": "joinTime",
          "type": "uint256"
        }
      ],
      "stateMutability": "view",
      "type": "function",
      "constant": true
    },
    {
      "inputs": [
        {
          "internalType": "uint256",
          "name": "",
          "type": "uint256"
        }
      ],
      "name": "ads",
      "outputs": [
        {
          "internalType": "address",
          "name": "advertiser",
          "type": "address"
        },
        {
          "internalType": "uint256",
          "name": "reward",
          "type": "uint256"
        },
        {
          "internalType": "uint256",
          "name": "maxInfluencer",
          "type": "uint256"
        },
        {
          "internalType": "uint256",
          "name": "deadline",
          "type": "uint256"
        },
        {
          "internalType": "bytes32",
          "name": "metadataHash",
          "type": "bytes32"
        },
        {
          "internalType": "uint256",
          "name": "acceptedCount",
          "type": "uint256"
        },
        {
          "internalType": "bool",
          "name": "isClosed",
          "type": "bool"
        }
      ],
      "stateMutability": "view",
      "type": "function",
      "constant": true
    },
    {
      "inputs": [],
      "name": "nextAdId",
      "outputs": [
        {
          "internalType": "uint256",
          "name": "",
          "type": "uint256"
        }
      ],
      "stateMutability": "view",
      "type": "function",
      "constant": true
    },
    {
      "inputs": [],
      "name": "deposit",
      "outputs": [],
      "stateMutability": "payable",
      "type": "function",
      "payable": true
    },
    {
      "inputs": [
        {
          "internalType": "uint256",
          "name": "reward",
          "type": "uint256"
        },
        {
          "internalType": "uint256",
          "name": "maxInfluencer",
          "type": "uint256"
        },
        {
          "internalType": "uint256",
          "name": "deadline",
          "type": "uint256"
        },
        {
          "internalType": "bytes32",
          "name": "metadataHash",
          "type": "bytes32"
        }
      ],
      "name": "addContract",
      "outputs": [],
      "stateMutability": "payable",
      "type": "function",
      "payable": true
    },
    {
      "inputs": [
        {
          "internalType": "uint256",
          "name": "adId",
          "type": "uint256"
        }
      ],
      "name": "joinAd",
      "outputs": [],
      "stateMutability": "nonpayable",
      "type": "function"
    },
    {
      "inputs": [
        {
          "internalType": "uint256",
          "name": "adId",
          "type": "uint256"
        },
        {
          "internalType": "address",
          "name": "influencer",
          "type": "address"
        }
      ],
      "name": "payInfluencer",
      "outputs": [],
      "stateMutability": "nonpayable",
      "type": "function"
    },
    {
      "inputs": [
        {
          "internalType": "uint256",
          "name": "adId",
          "type": "uint256"
        },
        {
          "internalType": "address",
          "name": "influencer",
          "type": "address"
        }
      ],
      "name": "getInfluencerInfo",
      "outputs": [
        {
          "internalType": "address",
          "name": "",
          "type": "address"
        },
        {
          "internalType": "bool",
          "name": "",
          "type": "bool"
        },
        {
          "internalType": "uint256",
          "name": "",
          "type": "uint256"
        }
      ],
      "stateMutability": "view",
      "type": "function",
      "constant": true
    },
    {
      "inputs": [
        {
          "internalType": "uint256",
          "name": "adId",
          "type": "uint256"
        }
      ],
      "name": "getAd",
      "outputs": [
        {
          "components": [
            {
              "internalType": "address",
              "name": "advertiser",
              "type": "address"
            },
            {
              "internalType": "uint256",
              "name": "reward",
              "type": "uint256"
            },
            {
              "internalType": "uint256",
              "name": "maxInfluencer",
              "type": "uint256"
            },
            {
              "internalType": "uint256",
              "name": "deadline",
              "type": "uint256"
            },
            {
              "internalType": "bytes32",
              "name": "metadataHash",
              "type": "bytes32"
            },
            {
              "internalType": "uint256",
              "name": "acceptedCount",
              "type": "uint256"
            },
            {
              "internalType": "bool",
              "name": "isClosed",
              "type": "bool"
            }
          ],
          "internalType": "struct AdContract.Ad",
          "name": "",
          "type": "tuple"
        }
      ],
      "stateMutability": "view",
      "type": "function",
      "constant": true
    },
    {
      "inputs": [],
      "name": "getBalance",
      "outputs": [
        {
          "internalType": "uint256",
          "name": "",
          "type": "uint256"
        }
      ],
      "stateMutability": "view",
      "type": "function",
      "constant": true
    }
  ],
  "bytecode": "0x608060405234801561001057600080fd5b50600060028190555061182f806100286000396000f3fe6080604052600436106100915760003560e01c80636dee86bb116100595780636dee86bb146101975780637ede1c07146101b3578063d0e30db0146101f0578063f57af182146101fa578063fec787551461022357610091565b806311a7a4c01461009657806312065fe0146100d95780631a0e43cb146101045780631a8bb68d14610143578063660157131461016e575b600080fd5b3480156100a257600080fd5b506100bd60048036038101906100b89190610e79565b610262565b6040516100d09796959493929190610f2a565b60405180910390f35b3480156100e557600080fd5b506100ee6102d1565b6040516100fb9190610f99565b60405180910390f35b34801561011057600080fd5b5061012b60048036038101906101269190610fe0565b6102d9565b60405161013a93929190611020565b60405180910390f35b34801561014f57600080fd5b5061015861033d565b6040516101659190610f99565b60405180910390f35b34801561017a57600080fd5b5061019560048036038101906101909190610fe0565b610343565b005b6101b160048036038101906101ac9190611083565b61059a565b005b3480156101bf57600080fd5b506101da60048036038101906101d59190610e79565b610811565b6040516101e791906111b4565b60405180910390f35b6101f86108e0565b005b34801561020657600080fd5b50610221600480360381019061021c9190610e79565b610973565b005b34801561022f57600080fd5b5061024a60048036038101906102459190610fe0565b610ceb565b60405161025993929190611020565b60405180910390f35b60006020528060005260406000206000915090508060000160009054906101000a900473ffffffffffffffffffffffffffffffffffffffff16908060010154908060020154908060030154908060040154908060050154908060060160009054906101000a900460ff16905087565b600047905090565b6001602052816000526040600020602052806000526040600020600091509150508060000160009054906101000a900473ffffffffffffffffffffffffffffffffffffffff16908060000160149054906101000a900460ff16908060010154905083565b60025481565b6000806000848152602001908152602001600020905060006001600085815260200190815260200160002060008473ffffffffffffffffffffffffffffffffffffffff1673ffffffffffffffffffffffffffffffffffffffff1681526020019081526020016000209050600073ffffffffffffffffffffffffffffffffffffffff168160000160009054906101000a900473ffffffffffffffffffffffffffffffffffffffff1673ffffffffffffffffffffffffffffffffffffffff1603610440576040517f08c379a00000000000000000000000000000000000000000000000000000000081526004016104379061122c565b60405180910390fd5b8060000160149054906101000a900460ff1615610492576040517f08c379a000000000000000000000000000000000000000000000000000000000815260040161048990611298565b60405180910390fd5b81600101544710156104d9576040517f08c379a00000000000000000000000000000000000000000000000000000000081526004016104d090611304565b60405180910390fd5b60018160000160146101000a81548160ff0219169083151502179055508273ffffffffffffffffffffffffffffffffffffffff166108fc83600101549081150290604051600060405180830381858888f19350505050158015610540573d6000803e3d6000fd5b508273ffffffffffffffffffffffffffffffffffffffff16847f3e3988623a38166d1afbdbce5ccd05db088216b8b2e1605bf686aea85ff9f6a7846001015460405161058c9190610f99565b60405180910390a350505050565b833410156105dd576040517f08c379a00000000000000000000000000000000000000000000000000000000081526004016105d490611370565b60405180910390fd5b60008411610620576040517f08c379a0000000000000000000000000000000000000000000000000000000008152600401610617906113dc565b60405180910390fd5b60008311610663576040517f08c379a000000000000000000000000000000000000000000000000000000000815260040161065a9061146e565b60405180910390fd5b4282116106a5576040517f08c379a000000000000000000000000000000000000000000000000000000000815260040161069c906114da565b60405180910390fd5b6040518060e001604052803373ffffffffffffffffffffffffffffffffffffffff1681526020018581526020018481526020018381526020018281526020016000815260200160001515815250600080600254815260200190815260200160002060008201518160000160006101000a81548173ffffffffffffffffffffffffffffffffffffffff021916908373ffffffffffffffffffffffffffffffffffffffff1602179055506020820151816001015560408201518160020155606082015181600301556080820151816004015560a0820151816005015560c08201518160060160006101000a81548160ff0219169083151502179055509050503373ffffffffffffffffffffffffffffffffffffffff166002547fc7ee275ef2ba193e42bf9f80a17bc8bbf309d0453255f7c34f1eab54a06922d6866040516107eb9190610f99565b60405180910390a36002600081548092919061080690611529565b919050555050505050565b610819610de6565b6000808381526020019081526020016000206040518060e00160405290816000820160009054906101000a900473ffffffffffffffffffffffffffffffffffffffff1673ffffffffffffffffffffffffffffffffffffffff1673ffffffffffffffffffffffffffffffffffffffff16815260200160018201548152602001600282015481526020016003820154815260200160048201548152602001600582015481526020016006820160009054906101000a900460ff1615151515815250509050919050565b60003411610923576040517f08c379a000000000000000000000000000000000000000000000000000000000815260040161091a906115bd565b60405180910390fd5b3373ffffffffffffffffffffffffffffffffffffffff167f60bbf3f279de4eb569cec9565dbd645a7d269bef7d4b20083d8da32ddd6e9460346040516109699190610f99565b60405180910390a2565b60025481106109b7576040517f08c379a00000000000000000000000000000000000000000000000000000000081526004016109ae90611629565b60405180910390fd5b600080600083815260200190815260200160002090508060060160009054906101000a900460ff1615610a1f576040517f08c379a0000000000000000000000000000000000000000000000000000000008152600401610a1690611695565b60405180910390fd5b8060020154816005015410610a69576040517f08c379a0000000000000000000000000000000000000000000000000000000008152600401610a6090611701565b60405180910390fd5b42816003015411610aaf576040517f08c379a0000000000000000000000000000000000000000000000000000000008152600401610aa69061176d565b60405180910390fd5b600073ffffffffffffffffffffffffffffffffffffffff166001600084815260200190815260200160002060003373ffffffffffffffffffffffffffffffffffffffff1673ffffffffffffffffffffffffffffffffffffffff16815260200190815260200160002060000160009054906101000a900473ffffffffffffffffffffffffffffffffffffffff1673ffffffffffffffffffffffffffffffffffffffff1614610b91576040517f08c379a0000000000000000000000000000000000000000000000000000000008152600401610b88906117d9565b60405180910390fd5b60405180606001604052803373ffffffffffffffffffffffffffffffffffffffff168152602001600015158152602001428152506001600084815260200190815260200160002060003373ffffffffffffffffffffffffffffffffffffffff1673ffffffffffffffffffffffffffffffffffffffff16815260200190815260200160002060008201518160000160006101000a81548173ffffffffffffffffffffffffffffffffffffffff021916908373ffffffffffffffffffffffffffffffffffffffff16021790555060208201518160000160146101000a81548160ff02191690831515021790555060408201518160010155905050806005016000815480929190610c9e90611529565b91905055503373ffffffffffffffffffffffffffffffffffffffff16827ffba212b56927575cf1899930f2a00b6200ddd506d20179f9685df1d38d75609060405160405180910390a35050565b6000806000806001600087815260200190815260200160002060008673ffffffffffffffffffffffffffffffffffffffff1673ffffffffffffffffffffffffffffffffffffffff1681526020019081526020016000206040518060600160405290816000820160009054906101000a900473ffffffffffffffffffffffffffffffffffffffff1673ffffffffffffffffffffffffffffffffffffffff1673ffffffffffffffffffffffffffffffffffffffff1681526020016000820160149054906101000a900460ff161515151581526020016001820154815250509050806000015181602001518260400151935093509350509250925092565b6040518060e00160405280600073ffffffffffffffffffffffffffffffffffffffff16815260200160008152602001600081526020016000815260200160008019168152602001600081526020016000151581525090565b600080fd5b6000819050919050565b610e5681610e43565b8114610e6157600080fd5b50565b600081359050610e7381610e4d565b92915050565b600060208284031215610e8f57610e8e610e3e565b5b6000610e9d84828501610e64565b91505092915050565b600073ffffffffffffffffffffffffffffffffffffffff82169050919050565b6000610ed182610ea6565b9050919050565b610ee181610ec6565b82525050565b610ef081610e43565b82525050565b6000819050919050565b610f0981610ef6565b82525050565b60008115159050919050565b610f2481610f0f565b82525050565b600060e082019050610f3f600083018a610ed8565b610f4c6020830189610ee7565b610f596040830188610ee7565b610f666060830187610ee7565b610f736080830186610f00565b610f8060a0830185610ee7565b610f8d60c0830184610f1b565b98975050505050505050565b6000602082019050610fae6000830184610ee7565b92915050565b610fbd81610ec6565b8114610fc857600080fd5b50565b600081359050610fda81610fb4565b92915050565b60008060408385031215610ff757610ff6610e3e565b5b600061100585828601610e64565b925050602061101685828601610fcb565b9150509250929050565b60006060820190506110356000830186610ed8565b6110426020830185610f1b565b61104f6040830184610ee7565b949350505050565b61106081610ef6565b811461106b57600080fd5b50565b60008135905061107d81611057565b92915050565b6000806000806080858703121561109d5761109c610e3e565b5b60006110ab87828801610e64565b94505060206110bc87828801610e64565b93505060406110cd87828801610e64565b92505060606110de8782880161106e565b91505092959194509250565b6110f381610ec6565b82525050565b61110281610e43565b82525050565b61111181610ef6565b82525050565b61112081610f0f565b82525050565b60e08201600082015161113c60008501826110ea565b50602082015161114f60208501826110f9565b50604082015161116260408501826110f9565b50606082015161117560608501826110f9565b5060808201516111886080850182611108565b5060a082015161119b60a08501826110f9565b5060c08201516111ae60c0850182611117565b50505050565b600060e0820190506111c96000830184611126565b92915050565b600082825260208201905092915050565b7f4e6f74206a6f696e656400000000000000000000000000000000000000000000600082015250565b6000611216600a836111cf565b9150611221826111e0565b602082019050919050565b6000602082019050818103600083015261124581611209565b9050919050565b7f416c726561647920706169640000000000000000000000000000000000000000600082015250565b6000611282600c836111cf565b915061128d8261124c565b602082019050919050565b600060208201905081810360008301526112b181611275565b9050919050565b7f496e73756666696369656e742062616c616e6365000000000000000000000000600082015250565b60006112ee6014836111cf565b91506112f9826112b8565b602082019050919050565b6000602082019050818103600083015261131d816112e1565b9050919050565b7f496e73756666696369656e74207061796d656e74000000000000000000000000600082015250565b600061135a6014836111cf565b915061136582611324565b602082019050919050565b600060208201905081810360008301526113898161134d565b9050919050565b7f526577617264206d7573742062652067726561746572207468616e2030000000600082015250565b60006113c6601d836111cf565b91506113d182611390565b602082019050919050565b600060208201905081810360008301526113f5816113b9565b9050919050565b7f4d617820696e666c75656e636572206d7573742062652067726561746572207460008201527f68616e2030000000000000000000000000000000000000000000000000000000602082015250565b60006114586025836111cf565b9150611463826113fc565b604082019050919050565b600060208201905081810360008301526114878161144b565b9050919050565b7f446561646c696e65206d75737420626520696e20746865206675747572650000600082015250565b60006114c4601e836111cf565b91506114cf8261148e565b602082019050919050565b600060208201905081810360008301526114f3816114b7565b9050919050565b7f4e487b7100000000000000000000000000000000000000000000000000000000600052601160045260246000fd5b600061153482610e43565b91507fffffffffffffffffffffffffffffffffffffffffffffffffffffffffffffffff8203611566576115656114fa565b5b600182019050919050565b7f416d6f756e74206d7573742062652067726561746572207468616e2030000000600082015250565b60006115a7601d836111cf565b91506115b282611571565b602082019050919050565b600060208201905081810360008301526115d68161159a565b9050919050565b7f496e76616c696420616449640000000000000000000000000000000000000000600082015250565b6000611613600c836111cf565b915061161e826115dd565b602082019050919050565b6000602082019050818103600083015261164281611606565b9050919050565b7f416420697320636c6f7365640000000000000000000000000000000000000000600082015250565b600061167f600c836111cf565b915061168a82611649565b602082019050919050565b600060208201905081810360008301526116ae81611672565b9050919050565b7f4d617820696e666c75656e636572732072656163686564000000000000000000600082015250565b60006116eb6017836111cf565b91506116f6826116b5565b602082019050919050565b6000602082019050818103600083015261171a816116de565b9050919050565b7f446561646c696e65207061737365640000000000000000000000000000000000600082015250565b6000611757600f836111cf565b915061176282611721565b602082019050919050565b600060208201905081810360008301526117868161174a565b9050919050565b7f416c7265616479206a6f696e6564000000000000000000000000000000000000600082015250565b60006117c3600e836111cf565b91506117ce8261178d565b602082019050919050565b600060208201905081810360008301526117f2816117b6565b905091905056fea2646970667358221220d97158d9bcba98b24e551f6bb7334fa3c0be0cc6fd284f42c2587609792ec4b764736f6c63430008130033",
  "immutableReferences": {},
  "source": "// SPDX-License-Identifier: MIT\r\npragma solidity ^0.8.19;  // 0.8.21  0.8.19 \r\n\r\ncontract AdContract {\r\n    struct Ad {\r\n        address advertiser;     //   \r\n        uint256 reward;         // \r\n        uint256 maxInfluencer;  //   \r\n        uint256 deadline;       //    timestamp\r\n        bytes32 metadataHash;   //     \r\n        uint256 acceptedCount;  //  \r\n        bool isClosed;\r\n    }\r\n\r\n    struct Influencer {\r\n        address influencer;\r\n        bool paid;\r\n        uint256 joinTime;\r\n    }\r\n\r\n    mapping(uint256 => Ad) public ads;\r\n    mapping(uint256 => mapping(address => Influencer)) public adInfluencerMap;\r\n\r\n    uint256 public nextAdId;\r\n\r\n    //  \r\n    event AdCreated(uint256 indexed adId, address indexed advertiser, uint256 reward);\r\n    event DepositSuccess(address indexed user, uint256 amount);\r\n    event JoinedAd(uint256 indexed adId, address indexed influencer);\r\n    event PaidInfluencer(uint256 indexed adId, address indexed influencer, uint256 reward);\r\n\r\n    constructor() {\r\n        nextAdId = 0;\r\n    }\r\n\r\n    // () \r\n    function deposit() public payable {\r\n        require(msg.value > 0, \"Amount must be greater than 0\");\r\n        emit DepositSuccess(msg.sender, msg.value);\r\n    }\r\n\r\n    //    (addContract)\r\n    function addContract(\r\n        uint256 reward,\r\n        uint256 maxInfluencer,\r\n        uint256 deadline,\r\n        bytes32 metadataHash\r\n    ) public payable { // \r\n        require(msg.value >= reward, \"Insufficient payment\");\r\n        require(reward > 0, \"Reward must be greater than 0\");\r\n        require(maxInfluencer > 0, \"Max influencer must be greater than 0\");\r\n        require(deadline > block.timestamp, \"Deadline must be in the future\");\r\n\r\n        // \r\n        ads[nextAdId] = Ad({\r\n            advertiser: msg.sender,\r\n            reward: reward,\r\n            maxInfluencer: maxInfluencer,\r\n            deadline: deadline,\r\n            metadataHash: metadataHash,\r\n            acceptedCount: 0,\r\n            isClosed: false\r\n        });\r\n\r\n        emit AdCreated(nextAdId, msg.sender, reward);\r\n        nextAdId++;\r\n    }\r\n\r\n    //  join\r\n    function joinAd(uint256 adId) public {\r\n        require(adId < nextAdId, \"Invalid adId\");\r\n\r\n        Ad storage ad = ads[adId];\r\n\r\n        require(!ad.isClosed, \"Ad is closed\");\r\n        require(ad.acceptedCount < ad.maxInfluencer, \"Max influencers reached\");\r\n        require(ad.deadline > block.timestamp, \"Deadline passed\");\r\n        require(adInfluencerMap[adId][msg.sender].influencer == address(0), \"Already joined\");\r\n\r\n        adInfluencerMap[adId][msg.sender] = Influencer({\r\n            influencer: msg.sender,\r\n            paid: false,\r\n            joinTime: block.timestamp\r\n        });\r\n\r\n        ad.acceptedCount++;\r\n        emit JoinedAd(adId, msg.sender);\r\n    }\r\n\r\n    // ( gpt  )\r\n    function payInfluencer(uint256 adId, address influencer) public {\r\n        Ad storage ad = ads[adId];\r\n        Influencer storage inf = adInfluencerMap[adId][influencer];\r\n\r\n        require(inf.influencer != address(0), \"Not joined\"); //    \r\n        require(!inf.paid, \"Already paid\"); //   \r\n        require(address(this).balance >= ad.reward, \"Insufficient balance\"); //  \r\n\r\n        inf.paid = true;\r\n        payable(influencer).transfer(ad.reward); //   \r\n\r\n        emit PaidInfluencer(adId, influencer, ad.reward);\r\n    }\r\n\r\n    //     \r\n    function getInfluencerInfo(uint256 adId, address influencer) public view returns (address, bool, uint256) {\r\n        Influencer memory inf = adInfluencerMap[adId][influencer];\r\n        return (inf.influencer, inf.paid, inf.joinTime);\r\n    }\r\n\r\n    //   \r\n    function getAd(uint256 adId) public view returns (Ad memory) {\r\n        return ads[adId];\r\n    }\r\n\r\n    //   \r\n    function getBalance() public view returns (uint256) {\r\n        return address(this).balance;\r\n    }\r\n}",
  "sourcePath": "C:\\Users\\USER\\Desktop\\GreenSalary\\Truffle\\contracts\\AdContract.sol",
  "compiler": {
    "name": "solc",
    "version": "0.8.19+commit.7dd6d404.Emscripten.clang"
  },
  "schemaVersion": "3.4.16",
  "updatedAt": "2025-06-06T12:45:14.362Z",
  "networkType": "ethereum",
  "devdoc": {
    "kind": "dev",
    "methods": {},
    "version": 1
  },
  "userdoc": {
    "kind": "user",
    "methods": {},
    "version": 1
  }
}